:020000040800F2
:2000000030430020C9010008290E0008D90C0008250E0008FB0300089B3800080000000033
:200020000000000000000000000000000F140008F508000800000000890F000821150008B2
:20004000E3010008BD0E0008E3010008E3010008E3010008E3010008E3010008E301000859
:20006000E3010008E3010008E3010008E3010008E3010008E3010008E3010008E301000820
:20008000E3010008E3010008E3010008E3010008E3010008E3010008E3010008E301000800
:2000A000E301000829180008E3010008E301000829190008CD1B0008E3010008E301000821
:2000C000E3010008E3010008E3010008E3010008E3010008792000080D2A00081133000858
:2000E000E3010008E3010008E301000800F002F800F05AF80AA090E8000C82448344AAF1BA
:200100000107DA4501D100F04FF8AFF2090EBAE80F0013F0010F18BFFB1A43F001031847B1
:20012000A4AB0000C4AB00000A444FF0000C10F8013B13F0070408BF10F8014B1D1108BF06
:2001400010F8015B641E05D010F8016B641E01F8016BF9D113F0080F1EBF10F8014BAD1CAB
:200160000C1B09D16D1E58BF01F801CBFAD505E014F8016B01F8016B6D1EF9D59142D6D3B1
:20018000704700000023002400250026103A28BF78C1FBD8520728BF30C148BF0B6070477F
:2001A0001FB51FBD10B510BD00F0F1F81146FFF7F7FF09F003FC00F00FF903B4FFF7F2FF53
:2001C00003BC00F013F900000948804709480047FEE7FEE7FEE7FEE7FEE7FEE7FEE7FEE78C
:2001E000FEE7FEE704480549054A064B7047000025150008ED000008303D002030430020ED
:20020000303F0020303F002053EA020C00F069802DE9F04B4FF00006002B1FBFB3FA83F5D8
:2002200003FA05F424FA05F65E4012BF1643B2FA82F502FA05F4C5F120051EBF22FA05FCFA
:2002400044EA0C04203556EA044C4FEA144418BF641C4FF000084FF00009904271EB030CC7
:2002600039D3002919BFB1FA81F701FA07F6B0FA80F700FA07F6C7F120071EBF20FA07FC65
:2002800046EA0C062037B6FBF4FCA7EB0507103F07F01F0BCBF120060CFA0BFB2CFA06F606
:2002A00044BFB3460026202FA4BF5E464FF0000B5BEA060C08BF4FF0010B19EB0B09ABFB55
:2002C000027C48EB0608C01B06FB02CC0BFB03CC71EB0C01C1E70B46024641464846BDE87C
:2002E000F08B13B54FF000004FF00001AFF30080BDE81C4070474FF000020429C0F01280B2
:2003000010F0030C00F01E80CCF1040CBCF1020F18BF00F8012BA8BF20F8022BA1EB0C0175
:2003200000F010B85FEAC17C24BF00F8012B00F8012B48BF00F8012B70477047704770474D
:200340004FF0000200B5134694469646203922BFA0E80C50A0E80C50B1F12001BFF4F7AF7A
:20036000090728BFA0E80C5048BF0CC05DF804EB890028BF40F8042B08BF704748BF20F817
:20038000022B11F0804F18BF00F8012B7047754600F028F8AE4605006946534620F007008B
:2003A000854618B020B5FFF71DFFBDE820404FF000064FF000074FF000084FF0000B21F091
:2003C0000701AC46ACE8C009ACE8C009ACE8C009ACE8C0098D4670470446AFF30080204653
:2003E000FFF7EBFE00487047CC3C002001491820ABBEFEE726000200704700BFFEE70000A4
:200400000B480078012802D10A49086002E000200849086008480078012803D10549091D66
:20042000086003E000200349091D086070470000440000208C8121424500002000B58BB097
:200440000121084600F0A2FD0E4800F013F90E4800900E4801901020029000200390049075
:200460008020059000200690079008904FF40050099000200A906946024800F0A5F90BB03A
:2004800000BD00001C00024004480040A200002010B50121084600F079FD0F4800F0EAF82F
:2004A0000E480F4908600F484860102088600E480088C8600020086180204861002088612E
:2004C000C86108624FF48050486200208862024800F07AF910BD0000300002400C30014059
:2004E00090350020F62300202C13002000B58BB00121084600F04AFD0E4800F0BBF80E4899
:2005000000900E480190102002900020039004908020059000200690079008904FF40050AE
:20052000099000200A906946024800F04DF90BB000BD000044000240043801407600002028
:2005400000B58BB00121084600F020FD114800F091F811480090114801900020029010487F
:20056000008803900020049080200590002006900790202008904FF44050099000200A902C
:200580006946044800F020F90121024800F066F80BB000BD5800024004380140D413002007
:2005A0001E00002000B58BB00121084600F0EEFC114800F05FF81148009011480190002030
:2005C00002901048008803900020049080200590002006900790202008904FF4405009909C
:2005E00000200A906946044800F0EEF80121024800F034F80BB000BD6C000240044400403A
:200600007E1900207C00002000B58BB00121084600F0BCFC0E4800F02DF80E4800900E48D8
:200620000190102002900020039004908020059000200690079008904FF4005009900020BA
:200640000A906946024800F0BFF80BB000BD000080000240044400409600002021B10268AC
:2006600042F00102026004E002684FF6FE731A400260704701684FF6FE721140016000217B
:20068000016041608160C1604B49884208D14A490839496841F00F01474A083A51608AE06B
:2006A00045491431884208D143490839496841F0F001414A083A51607DE03F49283188429E
:2006C00008D13D490839496841F470613A4A083A516070E038493C31884208D136490839AB
:2006E000496841F47041344A083A516063E032495031884208D130490839496841F47021DF
:200700002D4A083A516056E02B496431884208D129490839496841F47001274A083A51601F
:2007200049E025497831884208D123490839496841F07061204A083A51603CE01F498842CB
:2007400006D1011F096841F00F01021F116032E01A491431884208D11849091F096841F0D6
:20076000F001164A121F116025E014492831884208D11249091F096841F470610F4A121FA4
:20078000116018E00D493C31884208D10B49091F096841F47041094A121F11600BE0074987
:2007A0005031884207D10549091F096841F47021024A121F1160704708000240080402402C
:2007C0000146486880B2704710B50022026847F6F0739A430C6A8B6823430C6923434C690C
:2007E00023438C692343CC6923434C6A23438C6A23431A430260CB6843600B6883604B6887
:20080000C36010BD4160704710B500210648FFF725FF064801880448FFF7F4FF01210248CA
:20082000FFF71CFF10BD0000440002407200002010B500210648FFF711FF06480188044865
:20084000FFF7E0FF01210248FFF708FF10BD0000800002409200002010B51448FFF7B0FF53
:2008600018BB1348007800B312480078012809D1002405E01048005D10490855601CC4B2E4
:200880008C2CF7DB0E480078012809D1002405E00C48005D09490855601CC4B28C2CF7DB18
:2008A00000200349087000F00FF810BD1C000240B2000020240000202C1600206A2300200D
:2008C00082000020D61B002010B500210748FFF7C5FE074805491C3988628C210348FFF7AD
:2008E00091FF01210148FFF7B9FE10BD1C0002406A23002070470000014908607047000058
:2009000014040140014600200022074B1B6803EA0102054B14331B680B4013B10AB101202B
:2009200000E000207047000000040140002123498279002A3AD00A46126803689A430B469C
:200940001A600A1D126803689A430B1D1A60027911440A6803681A430A60184A0832126808
:2009600003689A43154B08331A601A1D126803689A43124B0C331A604279102A0ED11A1FFE
:20098000126803681A430D4B08331A601A1D126803681A43094B0C331A600DE0074942798A
:2009A00011440A6803681A430A6005E0027911440A6803689A430A60704700000004014069
:2009C00030B5044604254FF4302000F09FF80546042D17D10C48006940F002000A49086196
:2009E00008464461006940F0400008614FF4302000F08CF805460448006941F6FD710840CE
:200A000001490861284630BD0020024004200B49C96801F0010109B101200EE00749C96880
:200A200001F0040109B1022007E00449C96801F0100109B1032000E0042070470020024083
:200A40000348006940F080000149086170470000002002400549096821F01001034A1160C7
:200A60001146096801431160704700000020024078B506460C46042500200090E80200F062
:200A800045F80546042D24D11348006940F00100114908613480E80200F038F80546042DB6
:200AA00010D1B01C0090200C00990880E80200F02DF805460848006941F6FE71084006496C
:200AC000086106E00448006941F6FE71084002490861284678BD0000002002400146002004
:200AE000034A106800F038000843106070470000002002400248034948600348486070474D
:200B00002301674500200240AB89EFCD00B502460423FFF77BFF034603E0FFF777FF03463E
:200B2000521E012B01D1002AF7D102B90523184600BD2DE9F041024600250026002000233A
:200B40000024002791F803C00CF00F0591F803C00CF0100CBCF1000F03D091F802C04CEA7A
:200B6000050591F800C0BCF1000F31D0146800202BE04FF0010C0CFA00F3B1F800C00CEA1A
:200B800003069E4220D183004FF00F0C0CFA03F7BC4305FA03FC4CEA040491F803C0BCF16A
:200BA000280F06D14FF0010C0CFA00FCC2F814C00AE091F803C0BCF1480F05D14FF0010CEF
:200BC0000CFA00FCC2F810C0401C0828D1D31460B1F800C0BCF1FF0F34DD546800202EE0C6
:200BE00000F1080C4FF0010808FA0CF3B1F800C00CEA03069E4221D183004FF00F0C0CFA8A
:200C000003F7BC4305FA03FC4CEA040491F803C0BCF1280F05D100F1080C08FA0CF8C2F8D4
:200C2000148091F803C0BCF1480F07D100F1080C4FF0010808FA0CF8C2F81080401C0828CF
:200C4000CED35460BDE8F081F0B50A46002300240021002500F00046B6F1004F02D11D4E3D
:200C6000F16901E01B4E7168C0F3034583B200F44016B6F5401F08D121F07061154E766877
:200C800026F07066134F7E6012E000F48016B6F5801F06D1032606FA05F4A14341F0706183
:200CA00006E0460D360103FA06F6B14341F0706122B1460D360103FA06F6314300F00046D5
:200CC000B6F1004F02D1034EF16101E0014E7160F0BD00000000014000BFFEE710B500F060
:200CE000D3FAFFF7D5FB00F06DFD00F051F80121014801F008F810BD002C014070B50646C7
:200D00000C4601200E4908600A2002F087FE0EB1F82500E0FA25284600F00EFB04F0F005D5
:200D2000284600F009FB2007050E284600F004FB0020034908600A2002F070FE70BD00002F
:200D40009001214230B502460AB1F82000E0FA200D4B1C881B885B1C0B4D2B800B4B1855C9
:200D600001F0F0002B461C881B885B1C2B80074B18550B07180E2B461C881B885B1C2B80E7
:200D8000024B185530BD0000C4000020F623002010B5302000F01CF80A2002F019FE0C2017
:200DA00000F016F80A2002F013FE012000F010F8322002F00DFE022000F00AF80A2002F070
:200DC00007FE062000F004F80A2002F001FE10BD10B5044621460120FFF790FF10BD10B566
:200DE000044621460120FFF7ADFF10BD10B5044621460020FFF7A6FF10BD000010B50446A5
:200E000000210648FFF72AFC054801880348FFF7F9FC01210148FFF721FC10BD300002407E
:200E20002C13002000BFFEE7704710B54FF4A06000F03AF810BD000070B5002100230F2267
:200E4000C47804B3154C246804F4E064C4F5E064210AC1F10403CA40447804FA03F18478E1
:200E60001440214309010E4C0678A155047804F01F050124AC4005786D11AD0005F1E0259A
:200E8000C5F8004109E0047804F01F050124AC40044D0678761145F8264070BD0CED00E0C7
:200EA00000E400E080E100E002490143024A1160704700000000FA050CED00E010B54FF44A
:200EC0008030FFF71FFDC8B1FFF714FE0C49B1F87E104FF47C4202EB81000A490968FFF71A
:200EE000C7FD0748B0F87E00401C0549A1F87E00FFF7A6FD4FF48030FFF7FEFC10BD0000AF
:200F0000CC3B0020401300200EB501214FF0C05000F04CF84FF48030FFF7EEFC4FF4803009
:200F2000009000208DF8040010208DF8050001208DF806006846FFF7F9FC01208DF80800CB
:200F400000208DF809008DF80A0001208DF80B0002A8FFF771FFE02000F00AF8012000F090
:200F600001F80EBD014908617047000000000E4201460020034A106820F0E000084310601C
:200F800070470000007000407047000029B1064A52690243044B5A6104E0034A526982434E
:200FA000014B5A61704700000010024029B1064AD2690243044BDA6104E0034AD2698243BC
:200FC000014BDA61704700000010024029B1064A92690243044B9A6104E0034A92698243DC
:200FE000014B9A61704700000010024010B500F02BF8002000F0EAF8002000F0DBF80020D4
:2010000000F016F94FF4806000F006F90220FFF765FD1020FFF71EFD4FF46011002000F040
:2010200019F9012000F010F900BF392000F09CF80028FAD0022000F01BF900BF00F0B2F877
:201040000828FBD110BD00000F48006840F001000D490860084640680C4908400A4948608B
:20106000084600680A490840074908600846006820F4802008600846406820F4FE004860E5
:201080004FF41F0088607047001002400000FFF8FFFFF6FE30B500210022002400232D4D2B
:2010A0006D6805F00C0121B1042905D0082923D105E0294D056022E0274D05601FE0254D54
:2010C0006D6805F47012234D6D6805F48034022505EB92421CB9214D554305600BE01D4D4E
:2010E0006D6805F400351DB11C4D5543056002E0194D5543056002E0174D056000BF00BF4B
:20110000144D6D6805F0F0010909154D6B5C0568DD4045600F4D6D6805F4E061090A104D6E
:201120006B5C4568DD4085600A4D6D6805F46051C90A0B4D6B5C4568DD40C560054D6D685B
:2011400005F44041890B074D6B5CC568B5FBF3F5056130BD0010024000127A0000093D002A
:20116000C0130020D013002010B501460022002300204A11012A02D1094C236806E0022ABD
:2011800002D1074C236A01E0054C636A01F01F02012494401C400CB1012000E0002010BD8B
:2011A000001002400248406800F00C00704700000010024001460020034A506820F0F0007A
:2011C0000843506070470000001002401149096821F480310F4A11601146096821F4802132
:2011E0001160B0F5803F03D0B0F5802F0ED106E00849096841F48031064A116007E0054990
:20120000096841F4A021034A116000E000BF00BF704700000010024001460020034A5068D6
:2012200020F4E06008435060704700000010024001460020034A506820F4605040EAC1003B
:20124000506070470010024001490866704700000000424202460020044B586820F47C10CB
:2012600042EA01031843014B586070470010024001460020034A506820F00300084350605C
:20128000704700000010024000B587B001210420FFF79CFE01210803FFF798FE012108465A
:2012A000FFF794FEA020ADF8180018208DF81B0003208DF81A0006A91D48FFF73AFC5020DF
:2012C000ADF8180010208DF81B0003208DF81A0006A91748FFF72DFC0020ADF804004FF486
:2012E0008270ADF806000020ADF808000220ADF80A000120ADF80C004002ADF80E0030209C
:20130000ADF810000020ADF812000720ADF8140001A9084800F05DF80121064800F036F894
:2013200001220221034800F03DF807B000BD0000000801400030014070B50546002405E050
:20134000601CC4B2C82C01DD002070BD02210E4800F031F80028F3D029460B4800F037F81E
:20136000002405E0601CC4B2C82C01DD0020ECE70121054800F01FF80028F3D0024800F012
:2013800023F8C0B2E1E700000030014021B1028842F04002028004E002884FF6BF731A40F6
:2013A000028070471AB183880B43838002E083888B43838070470246002013890B400BB14D
:2013C000012000E0002070470146888970478181704710B50022028802F441520B884C880C
:2013E00023438C882343CC8823430C8923434C8923438C892343CC8923431A430280838BFA
:201400004FF2FF74234083830B8A038210BD704710B500F001F810BD0CB500200190009094
:201420003348006840F480303149086000BF3048006800F4003000900198401C0190009892
:2014400018B90198B0F5A06FF1D12948006800F4003010B10120009001E000200090009814
:20146000012843D12348006840F01000214908600846006820F0030008600846006840F033
:20148000020008601A484068194948600846406848600846406840F4806048600846406888
:2014A00020F47C1048600846406840F4E81048600846006840F08070086000BF0C48006861
:2014C00000F000700028F9D00948406820F00300074948600846406840F00200486000BF28
:2014E0000348406800F00C000828F9D10CBD00000010024000200240042808D14FF0E02141
:20150000096941F004014FF0E022116107E04FF0E021096921F004014FF0E0221161704757
:201520007047000010B51348006840F001001149086008464068104908400E494860084695
:2015400000680E4908400B4908600846006820F4802008600846406820F4FE0048604FF403
:201560001F008860FFF754FF4FF000600449086010BD0000001002400000FFF8FFFFF6FEBF
:2015800008ED00E0F0B50C46154600220021068C4FF6FE773E400684028B018C4FF60C76AC
:2015A00032407E1C06EA03162E433243104EB0420ED0104EB0420BD0B0F1804F08D00E4E33
:2015C000B04205D00D4EB04202D00D4EB04206D14FF6FD76314044F00106314305E04FF6FF
:2015E000F576314044F00106314302830184F0BD002C01400034014000040040000800403B
:20160000000C0040F0B50C461546002200210026078C4FF6EF7C07EA0C070784028B018CD7
:201620004FF6FF7707EA041640F6FF473A404FF6FF7707EA03373A434FF6FF7707EA0527B3
:201640003A43114FB8420ED0104FB8420BD0B0F1804F08D00E4FB84205D00E4FB84202D004
:201660000D4FB84206D14FF6DF77394046F01007394305E04FF65F77394044F01007394320
:2016800002830184F0BD0000002C0140003401400004004000080040000C0040F0B50C46E2
:2016A0001546002200210026078C4FF6FF6C07EA0C070784828B018C4FF6FF7707EA042624
:2016C0004FF60C773A404FF6FF7707EA03172F433A43114FB8420ED0104FB8420BD0B0F106
:2016E000804F08D00E4FB84205D00E4FB84202D00D4FB84206D14FF6FF57394046F480777C
:20170000394305E04FF2FF57394044F48077394382830184F0BD0000002C01400034014094
:201720000004004000080040000C0040F0B50C461546002200210026078C4EF6FF7C07EAD3
:201740000C070784828B018C4FF6FF7707EA043640F6FF473A404FF6FF7707EA05273A4320
:201760004FF6FF7707EA03373A43114FB8420ED0104FB8420BD0B0F1804F08D00E4FB842FB
:2017800005D00E4FB84202D00D4FB84206D14DF6FF77394046F48057394305E047F6FF57E7
:2017A000394044F48057394382830184F0BD0000002C014000340140000400400008004080
:2017C000000C00401FB50121C802FFF7FFFB40F2CF70ADF8080041F6FF00ADF804000020F0
:2017E000ADF80A00ADF806008DF80C0001A90D4800F0F0FB01210B4800F082FA01221146C9
:20180000084800F0F7FA19208DF8000003208DF801008DF8020001208DF803006846FFF75C
:201820000BFB1FBD002C014010B50121384800F079FA01286AD10121354800F061FA4FF4FE
:2018400080613448FEF757FD3348D0E9003040F6B8329A1A70F1000002D206F0EBF947E074
:201860002E4800780D2803D02D4800780D2806D12C480078612802D006F052F838E0294869
:201880000078052822D005DC2ED2DFE800F0101316191C00622822D004DC062819D06128AF
:2018A00022D119E063281BD064281DD119E006F02BFA1CE007F054F819E002F071FC16E0AB
:2018C00003F02CFD13E004F01BFC10E005F01AF80DE005F0EDFB0AE006F0B8F907E006E0CF
:2018E00005E002F099FA02E007F03AF800BF00BF06F04EF90122002145F65A2001F04AF88C
:201900000122002145F65A2001F0B0FC10BD0000002C01408E310020701300204400002011
:2019200045000020C70000202DE9F04786B00421080700F0F7F901287ED10421800700F0B0
:20194000DFF94FF0804000F0EAF90446664909888C4205DD64480088201A1FFA80F907E0BC
:201960004EF66020204460490988401A1FFA80F95D480480B9F1320F63DD5C48008840F267
:201980005371484304EB401059490988A0EB010A5748048057480068401C56490860084615
:2019A000006808F0BAFD074653480CC8384608F0C7FD054608F084FD504908605048006855
:2019C000096808444F4908604F485049097840F821A00020454908804C4800780A2811DA41
:2019E00049484A49097850F82110024647480078401C52F82000081A4549096808444449BA
:201A0000086009E04048806A3F490968401A4049096808443E4908603E4800683C49096897
:201A2000B0FBF1F03C49088038480078401C374908700846007800E003E00A2801DD002008
:201A400008700121880700F06DF9012849D13348008808F062FD074688463148008808F056
:201A60005CFD05462F4A304B08F06AFD00222F4BCDE9000108F064FD3A464346CDE9020101
:201A800008F0C6FBCDE9040108F01AFD214908602248008808F041FD05460E46204800883A
:201AA00008F03BFD0022224BCDE9040108F0B0FB07462A46334608F0ABFB0F4A03C20121F5
:201AC000880700F01DF909480088401C0749088008460088022802DD00200F49088008F08D
:201AE0003BF806B0BDE8F0875E13002056130020541300204C1300203813002048130020DB
:201B00004413002040130020BC3500205C1300205813002034130020501300203213002061
:201B200030130020CDCCCCCCCCCC0C4000C0824000408F4000B587B008F0E4F8012108466C
:201B4000FFF734FA4EF65F20ADF8140040F22A40ADF810000020ADF81600ADF8120004A955
:201B60004FF0804000F036FA01221146900700F041F91C208DF80C0001208DF80D00032068
:201B80008DF80E0001208DF80F0003A8FFF754F90420ADF800000F20ADF808000020ADF8A5
:201BA0000200ADF806000120ADF804006946800700F0CAF801220421080700F01BF9012149
:201BC000880700F0A0F807B000BD000010B501210A4800F0A7F801280FD10121074800F048
:201BE0008FF80748D0E90020521C40F100000449C1E900207F2001F053FE10BD000400408E
:201C0000701300201FB501210220FFF7CFF940F2E730ADF808003F20ADF804000020ADF888
:201C20000A00ADF8060001A90D4800F0D3F9012211460B4800F0DEF81D208DF800000120BE
:201C40008DF8010000208DF8020001208DF803006846FFF7F1F80121014800F054F81FBD9E
:201C60000004004000B587B001210420FFF79EF93120ADF8140040F27F20ADF810000020B1
:201C8000ADF81600ADF8120004A9164800F0A2F96020ADF800000120ADF802003220ADF858
:201CA00006000020ADF8080069460E4800F0ACF808210C4800F0F4F80020ADF806006946E5
:201CC000084800F0F7F80821064800F045F90121044800F009F80121024800F014F807B0B2
:201CE00000BD00000008004021B1028842F08002028004E002884FF67F731A400280704715
:201D0000CA430282704721B1028842F00102028004E002884FF6FE731A400280704701466A
:201D2000088F704730B50246002000230024158A05EA0103958905EA010413B10CB101207B
:201D400000E0002030BD000070B505460C46244885420ED0234885420BD0B5F1804F08D069
:201D60002148854205D02148854202D02048854200D100E000BF208850B92389A28861884D
:201D80002846FFF7FFFBE188284600F0F6F825E0208804280AD12389A28861882846FFF759
:201DA00031FCE188284600F0F1F817E0208808280AD12389A28861882846FFF76FFCE188A5
:201DC000284600F0F0F809E02389A28861882846FFF7ACFCE188284600F0EEF870BD00002F
:201DE000002C0140003401400004004000080040000C00401AB183890B43838102E0838912
:201E00008B4383817047000070B5002400220023058C4FF6FE7635400584028C8388048B3B
:201E20004FF68F752C40B51E2C400D882C43751E2A400D892A434D882A43144DA8420BD042
:201E4000134DA84208D0134DA84205D0124DA84202D0124DA84213D14FF6F7752A404D8908
:201E60002A434FF6FB752A408D882A434FF6FF652B404FF6FF552B408D892B43CD892B43F4
:201E800083800483CD888586028470BD002C01400034014000400140004401400048014034
:201EA0000A460021018B4FF6F7731940114301837047000070B5002400220023058C4FF62A
:201EC000EF7635400584028C8388048B48F6FF752C404FF6FF452C400D884FF6FF7606EA25
:201EE00005252C434FF6DF752A400D8906EA05152A434D8806EA05152A43154DA84202D0CF
:201F0000144DA8421DD14FF67F752A404D894FF6FF7606EA05152A434FF6BF752A408D88E6
:201F200006EA05152A434FF6FF352B404FF2FF752B408D8906EA85052B43CD8906EA850558
:201F40002B4383800483CD880587028470BD0000002C0140003401400A460021018B4FF2D5
:201F6000FF7319404FF6FF7303EA02231943018370478186704701877047028B4FF6F37301
:201F80001A400283028B0A4302837047028B4FF2FF331A400283028B4FF6FF7303EA012318
:201FA0001A4302837047828B4FF6F3731A408283828B0A4382837047828B4FF2FF331A4081
:201FC0008283828B4FF6FF7303EA01231A43828370470000002202881D4B98420ED01D4BDA
:201FE00098420BD0B0F1804F08D01B4B984205D01A4B984202D01A4B984204D14FF68F7363
:020000040800F2
:202000001A404B881A43174B984207D0164B984204D04FF6FF431A40CB881A4302808B88EE
:2020200083850B8803850A4B98420BD0094B984208D00E4B984205D00D4B984202D00D4B09
:20204000984201D10B7A03860123838270470000002C014000340140000400400008004078
:20206000000C0040001000400014004000400140004401400048014010B540F22551084824
:2020800001F04AFB50B1002240F22551044801F06DFB40F22551024801F01AFB10BD0000D5
:2020A00000380140F8B57048FEF78AFB0646002E7EDDC6F516706D490880084600886C49E9
:2020C0000988884206DB6948008869490988401A85B207E06548008800F5167064490988E2
:2020E000401A85B2052DE3DD002418E0604800882044B0F5167F07DA5D48008820445D495B
:20210000085C0DF8040008E0594800882044A0F516705849085C0DF80400601CC4B2022C94
:20212000E4DB9DF80000A52803D19DF80100A5280FD09DF800005A2803D19DF801005A2865
:2021400007D09DF80000DB2872D19DF80100DB287CD1002418E0464800882044B0F5167F17
:2021600007DA4348008820444249085C4249085508E03F4800882044A0F516703D49085CD0
:202180003D490855601CC4B2062CE4DB3A4880783949C9780844384909790844C0B23649B0
:2021A0004979884245D1002034490870324800E059E00078A52801D100F012FC2E480078D2
:2021C0005A2801D100F0D0FB2B480078DB2801D100F084FB002416E0254800882044B0F5A9
:2021E000167F06DA0020224909882144214A505407E000211E4800882044A0F516701D4AFE
:202200001154601CC4B2062CE6DB1948008840F25221884205DA16480088801D14490880D5
:2022200020E013480088A0F252201149088019E00CE00F480088401C0D4908800846008801
:20224000B0F5167F0EDB002008800BE008480088401C0749088008460088B0F5167F01DBD0
:202260000020088000BFF8BD580002406600002068000020D41300206A0000201C000020CD
:202280002DE9F0474FF00009FD48FEF799FA8046B8F1000F7EDDC8F51670FA4908800846A7
:2022A0000088F9490988884206DBF6480088F6490988401A87B207E0F248008800F51670CB
:2022C000F1490988401A87B28C2F63DB002018E0ED4909880144B1F5167F07DAEA490988A3
:2022E0000144EA4A515CEA4A115408E0E64909880144A1F51671E54A515CE54A1154411C48
:20230000C8B20428E4DBE2490978AA297DD1E04949785529FAD1DE498978AA29F6D1DC4971
:20232000C978FF29F2D1002018E0D74909880144B1F5167F07DAD44909880144D34A515C8A
:20234000D44A115408E0D04909880144A1F51671CE4A515CCF4A1154411CC8B28C28E4DB79
:20236000002008E0032804DDCA49095C49441FFA81F9411CC8B28A28F4DBC64991F88AA097
:2023800091F88B1001EB0A211FFA81FAD1457DD1012100E0DDE1C04A11600021BF4A117024
:2023A000002016E0042101EB4001BA4A515CBC4A22F81010052101EB4001B64A515CB84AC2
:2023C00012F8102001EB0221B54A22F81010411CC8B22128E6DBAF4991F8466091F8471093
:2023E00041EA0626AB4991F8481041EA0626A94991F8491041EA0626AA490E60A54991F857
:202400004A10A94A1170A34900E095E191F84B5091F84C1041EA05259E4991F84D1041EA56
:2024200005259C4991F84E1041EA05259F490D60984991F84F5091F8501041EA05259549D7
:2024400091F8511041EA0525924991F8521041EA052597490D608F4991F8535091F85410E4
:2024600041EA05258B4991F8551041EA0525894991F8561041EA05258E490D60854991F83F
:20248000575091F8581041EA052500E047E1814991F8591041EA05257E4991F85A1041EA51
:2024A000052585490D60002017E05B2101EB4001784A515C814A22F810105C2101EB4001D9
:2024C000744A515C7D4A12F8102001EB022109B27A4A22F81010411CC8B20628E5DB6D494D
:2024E00091F86710764A11706A4991F86810754A1170684991F86910734A1170654991F87F
:202500006A4091F86B1041EA042470490C80614991F86C4091F86D1041EA04246C490C80FC
:202520005C4991F86E106B4A11705A4991F86F6091F8701041EA0626564991F8711041EA8A
:202540000626544991F8721041EA062662490E60504991F87310614A11704E4991F8744092
:2025600091F8751041EA04245D490C80494991F876105C4A1170474991F8774091F878101F
:2025800041EA042458490C80424991F8794091F87A1041EA042455490C803E4991F87B10C3
:2025A000534A11703B4991F87C4091F87D1041EA042450490C80374991F87E4091F87F10C7
:2025C00041EA04244C490C80324991F8804091F8811041EA042449490C802E4991F8824076
:2025E00091F8831041EA042445490C80294991F8845091F8851041EA0525264991F8861082
:2026000041EA0525234991F8871041EA05253D490D60204991F8884091F8891041EA042462
:2026200039490C800988394A374B1B88C3F3842322F81310002016E0134909880144B1F5CB
:20264000167F06DA0021104A128802440F4B995407E000220C4909880144A1F516710B4BBC
:202660005A54411CC8B28C28E6DB07490988B1F5E67F4DDA044909888C31034A118067E08D
:20268000580002402000002022000020D4130020250000202C160020B88121421C00002098
:2026A000B81600202C0000203000002034000020380000203C00002040000020FA160020F8
:2026C000440000204500002046000020301300203213002047000020480000204C000020C8
:2026E0004E0000204D00002050000020520000205400002056000020580000205A00002041
:202700005C00002060000020640000200617002011490988A1F5E6710F4A118018E00E49EB
:202720000988491C0C4A118011460988B1F5167F0EDB002111800BE007490988491C064A7D
:20274000118011460988B1F5167F01DB0021118000BFBDE8F08700002200002010B52F48DE
:2027600000782F490978884257D02E48FEF728F8002852D12A48007800EB40002A4931F870
:202780001000000A294908702548007800EB4000254911F81000254948702148007800EBAC
:2027A0004000214901EB40008078204988701C48007800EB40001C4901EB40008088000A40
:2027C0001A49C8701648007800EB4000164901EB400000791549087108468078C9780844AF
:2027E00012490979084411494871FEF70DF80C480078401C0A49087008460078632801DD81
:202800000020087000F016F809480078642804DA07480078401C0649087010BD74000020A4
:20282000750000204400024026170020760000201C0000201F480078042818DD1E48007870
:20284000042814DD00201D4908701D4908701D4908701D4908701D480078612803D01B4827
:2028600000781B4908706120184908700AE001201249087015480078612803D114480078C6
:20288000124908700B480078042803DD00201149087002E001200F490870074800780428D6
:2028A00003DD00200C49087002E001200A490870704700001C0000201D0000209C00002091
:2028C000440000204500002046000020C7000020C8000020240000208200002070B51D488A
:2028E0008578C478007900EB042084B25A2D05DB662D03DAA5F15A00174A14540A2D13D037
:2029000004DC012D07D0022D21D107E00B2D0ED00F2D1CD10FE01148048019E0E1B20F48DC
:20292000008801F005F813E007F0D2F810E000200B4908600CE00B490C700846007807F028
:20294000F3F8084801783E2001F010F900E000BF00BF70BD6A0000201A170020B400002031
:20296000401300208A13002030B508488578C478007900EB042084B2054804802946224653
:2029800045F65A2000F00CFE30BD00006A0000207000002010B5104B1B7803EB43030F4C3F
:2029A00024F813000C4B1B7803EB430304EB43035980094B1B7803EB430304EB43039A8052
:2029C000054B1B785B1C044C237023461B78632B01DD0023237010BD7400002026170020DE
:2029E00030B508488578C478007900EB042084B205480480294622464AF2A55000F0D0FD15
:202A000030BD00006A0000207000002010B540F22551054800F080FE20B140F225510248C4
:202A200000F056FE10BD000000440040F8B57048FDF7C6FE0646002E7EDDC6F516706D4918
:202A40000880084600886C490988884206DB6948008869490988401A85B207E065480088FE
:202A600000F5167064490988401A85B2052DE3DD002418E0604800882044B0F5167F07DA4F
:202A80005D48008820445D49085C0DF8040008E0594800882044A0F516705849085C0DF8F8
:202AA0000400601CC4B2022CE4DB9DF80000A52803D19DF80100A5280FD09DF800005A28A4
:202AC00003D19DF801005A2807D09DF80000DB2872D19DF80100DB287CD1002418E04648C8
:202AE00000882044B0F5167F07DA4348008820444249085C4249085508E03F480088204426
:202B0000A0F516703D49085C3D490855601CC4B2062CE4DB3A4880783949C97808443849E0
:202B200009790844C0B236494979884245D1002034490870324800E059E00078A52801D175
:202B400000F0BAFB2E4800785A2801D100F07CFB2B480078DB2801D100F030FB002416E032
:202B6000254800882044B0F5167F06DA0020224909882144214A505407E000211E4800885C
:202B80002044A0F516701D4A1154601CC4B2062CE6DB1948008840F25221884205DA164870
:202BA0000088801D1449088020E013480088A0F252201149088019E00CE00F480088401C22
:202BC0000D49088008460088B0F5167F0EDB002008800BE008480088401C07490880084631
:202BE0000088B0F5167F01DB0020088000BFF8BD6C000240880000208A0000207E19002064
:202C00008C0000201D0000202DE9F0474FF00009FD48FDF7D5FD8046B8F1000F7EDDC8F595
:202C20001670FA49088008460088F9490988884206DBF6480088F6490988401A87B207E0DF
:202C4000F248008800F51670F1490988401A87B28C2F63DB002018E0ED4909880144B1F516
:202C6000167F07DAEA4909880144EA4A515CEA4A115408E0E64909880144A1F51671E54A22
:202C8000515CE54A1154411CC8B20428E4DBE2490978AA297DD1E04949785529FAD1DE490A
:202CA0008978AA29F6D1DC49C978FF29F2D1002018E0D74909880144B1F5167F07DAD449E1
:202CC00009880144D34A515CD44A115408E0D04909880144A1F51671CE4A515CCF4A11549A
:202CE000411CC8B28C28E4DB002008E0032804DDCA49095C49441FFA81F9411CC8B28A2855
:202D0000F4DBC64991F88AA091F88B1001EB0A211FFA81FAD1457DD1012100E0DDE1C04A25
:202D200011600021BF4A1170002016E0042101EB4001BA4A515CBC4A22F81010052101EB0C
:202D40004001B64A515CB84A12F8102001EB0221B54A22F81010411CC8B22128E6DBAF4928
:202D600091F8466091F8471041EA0626AB4991F8481041EA0626A94991F8491041EA062696
:202D8000AA490E60A54991F84A10A94A1170A34900E095E191F84B5091F84C1041EA0525ED
:202DA0009E4991F84D1041EA05259C4991F84E1041EA05259F490D60984991F84F5091F8E9
:202DC000501041EA0525954991F8511041EA0525924991F8521041EA052597490D608F49E1
:202DE00091F8535091F8541041EA05258B4991F8551041EA0525894991F8561041EA052538
:202E00008E490D60854991F8575091F8581041EA052500E047E1814991F8591041EA052511
:202E20007E4991F85A1041EA052585490D60002017E05B2101EB4001784A515C814A22F834
:202E400010105C2101EB4001744A515C7D4A12F8102001EB022109B27A4A22F81010411C17
:202E6000C8B20628E5DB6D4991F86710764A11706A4991F86810754A1170684991F869104C
:202E8000734A1170654991F86A4091F86B1041EA042470490C80614991F86C4091F86D1092
:202EA00041EA04246C490C805C4991F86E106B4A11705A4991F86F6091F8701041EA062641
:202EC000564991F8711041EA0626544991F8721041EA062662490E60504991F87310614A8A
:202EE00011704E4991F8744091F8751041EA04245D490C80494991F876105C4A1170474992
:202F000091F8774091F8781041EA042458490C80424991F8794091F87A1041EA042455490F
:202F20000C803E4991F87B10534A11703B4991F87C4091F87D1041EA042450490C80374975
:202F400091F87E4091F87F1041EA04244C490C80324991F8804091F8811041EA04244949DB
:202F60000C802E4991F8824091F8831041EA042445490C80294991F8845091F8851041EA62
:202F80000525264991F8861041EA0525234991F8871041EA05253D490D60204991F8884096
:202FA00091F8891041EA042439490C800988394A374B1B88C3F3842322F81310002016E0A5
:202FC000134909880144B1F5167F06DA0021104A128802440F4B995407E000220C49098813
:202FE0000144A1F516710B4B5A54411CC8B28C28E6DB07490988B1F5E67F4DDA044909882E
:203000008C31034A118067E06C0002407E000020800000207E19002083000020D61B002077
:20302000B88121421D000020B81600202C0000203000002034000020380000203C00002025
:2030400040000020FA16002044000020450000204600002030130020321300204700002082
:20306000480000204C0000204E0000204D00002050000020520000205400002056000020D5
:20308000580000205A0000205C00002060000020640000200617002011490988A1F5E671A9
:2030A0000F4A118018E00E490988491C0C4A118011460988B1F5167F0EDB002111800BE051
:2030C00007490988491C064A118011460988B1F5167F01DB0021118000BFBDE8F08700003D
:2030E0008000002010B52F4800782F490978884257D02E48FDF764FB002852D12A48007894
:2031000000EB40002A4931F81000000A294908702548007800EB4000254911F810002549DF
:2031200048702148007800EB4000214901EB40008078204988701C48007800EB40001C4970
:2031400001EB40008088000A1A49C8701648007800EB4000164901EB4000007915490871BA
:2031600008468078C978084412490979084411494871FDF75DFB0C480078401C0A49087001
:2031800008460078632801DD00200870FFF752FB09480078642804DA07480078401C064980
:2031A000087010BD940000209500002080000240621C0020960000201D00002070B51D4884
:2031C0008578C478007900EB042084B25A2D05DB662D03DAA5F15A00174A14540A2D13D04E
:2031E00004DC012D07D0022D21D107E00B2D0ED00F2D1CD10FE01148048019E0E1B20F48F4
:20320000008800F095FB13E006F062FC10E000200B4908600CE00B490C700846007806F01B
:2032200083FC084801783E2000F0A0FC00E000BF00BF70BD8C0000201A170020B6000020FE
:20324000401300208A13002030B507488478C578007900EB052085B221462A4645F65A2085
:2032600000F09EF930BD00008C00002010B5104B1B7803EB43030F4C24F813000C4B1B78D3
:2032800003EB430304EB43035980094B1B7803EB430304EB43039A80054B1B785B1C044CD8
:2032A000237023461B78632B01DD0023237010BD94000020621C002030B507488478C578D1
:2032C000007900EB052085B221462A464AF2A55000F066F930BD00008C00002010B5002158
:2032E0000848FDF7BBF9084806491C398862074801880448FDF786FA01210248FDF7AEF959
:2033000010BD00001C000240A20000209E00002010B540F225510F4800F0FEF9C0B140F2B4
:2033200025510C4800F0D4F90A4800F0B1FAC4B209480A490988445408480088401C074952
:20334000088008460088B0F5167F01DB0020088010BD00000048004012210020A8000020E1
:2033600038B55B4800885B490988884206DB5848008858490988401A85B207E0544800885F
:2033800000F5167053490988401A85B2052D7CDD002418E04F4800882044B0F5167F07DAAF
:2033A0004C48008820444C49085C0DF8040008E0484800882044A0F516704749085C0DF813
:2033C0000400601CC4B2022CE4DB9DF80000A52803D19DF80100A5280FD09DF800005A287B
:2033E00003D19DF801005A2807D09DF80000DB2860D19DF80100DB285CD1002418E03548E2
:2034000000882044B0F5167F07DA3248008820443149085C3149085508E02E480088204440
:20342000A0F516702C49085C2C490855601CC4B2062CE4DB294880782849C978084427490C
:2034400009790844C0B225494979884225D123480078A52801D100F023F9204800785A284C
:2034600001D100F005F91D480078DB2801D100F0BDF81848008840F25221884206DA1548A1
:203480000088801D1349088020E020E011480088A0F252200F49088018E00E480088401C2C
:2034A0000C49088008460088B0F5167F0EDB002008800BE007480088401C0649088008464B
:2034C0000088B0F5167F01DB0020088000BF38BDA8000020AA00002012210020AC00002041
:2034E00010B52A4800782A49097888424CD02948FDF766F9002847D12548007800EB40002F
:20350000254931F81000000A244908702048007800EB4000204911F81000204948701C4803
:20352000007800EB40001C4901EB400080781B4988701748007800EB4000174901EB400075
:203540008088000A1549C8701148007800EB4000114901EB400000791049087108468078B0
:20356000C97808440D49097908440C494871FFF7B5FE07480078401C054908700846007834
:20358000632801DD0020087010BD0000A0000020A10000201C000240BA1E0020A2000020C4
:2035A00010B5104B1B7803EB43030F4C24F813000C4B1B7803EB430304EB43035980094B1A
:2035C0001B7803EB430304EB43039A80054B1B785B1C044C237023461B78632B01DD00230D
:2035E000237010BDA0000020BA1E002070B51B488478C578007900EB052085B214B9012044
:2036000017490870012C07D106F062FAE1B22A464DF6DB30FFF7C4FF022C06D1E1B2114880
:2036200002884DF6DB30FFF7BBFF042C02D100200D490860052C10D10C490D700846007877
:2036400006F072FA094801783E2000F08FFAE1B22A464DF6DB30FFF7A3FF70BDAC00002085
:20366000B200002050130020401300208A13002030B50A488478C578007900EB052085B295
:2036800021462A4645F65A20FFF784F921462A4645F65A20FFF7EAFD30BD0000AC00002009
:2036A00030B50A488478C578007900EB052085B221462A464AF2A550FFF76CF921462A46A0
:2036C0004AF2A550FFF7D2FD30BD0000AC00002010B50022002340F66A14A14200D100BF0A
:2036E0000A1201249440A3B2DC43048010BD21B1828942F40052828104E082894DF6FF73E4
:203700001A40828170471AB1838A0B43838202E0838A8B438382704770B50246002400233D
:203720000025002040F66A16B14200D100BFC1F3421501F01F03012606FA03F3012D02D1CF
:203740009689334006E0022D02D1168A334001E0968A33400C12012606FA04F41688344019
:2037600013B10CB1012000E0002070BDF0B50346002400260025002040F66A17B94200D17A
:2037800000BF1846C1F3421401F01F06012707FA06F5012C01D10C3004E0022C01D1103069
:2037A00000E014301AB107682F43076002E00768AF430760F0BD00002DE9F04786B00546AD
:2037C0000E460024A24600BFA1460027B08900B100BF2F462C8A4CF6FF700440F088044334
:2037E0002C82AC894EF6F3100440B08831890843718908430443AC81AC8A4FF6FF40044067
:20380000B0890443AC8201A8FDF744FC1F48874202D1DDF810A001E0DDF80CA0A88900F40E
:20382000004040B10AEBCA0000EB0A1031684900B0FBF1F807E00AEBCA0000EB0A103168D9
:203840008900B0FBF1F86420B8FBF0F004012009642101FB1089A88900F4004040B1322044
:2038600000EBC900B0FBF1F000F00700044308E0322000EB09106421B0FBF1F000F00F007C
:2038800004432C8106B0BDE8F08700000038014001468888C0F30800704700BFFEE700007C
:2038A00000F07F01014A116070470000002C004010B51948007870B31848D0E9003018494E
:2038C00009885B1840F10000164A06CA591A904121D21548FEF723FA20B100211248FEF79C
:2038E0004AFB03E00F211048FEF745FB0F480078401E0E4908700846007830B900200649C9
:20390000087000210848FEF736FB0648D0E90010024AC2E9001010BD89130020801300203E
:20392000781300207013002000080040881300204A06120E034B1A70034A10800122034BA0
:203940001A70704788130020781300208913002010B50C48D0E90030C8229A1840F1000035
:203960000949D1E900319A1A814109D306F070FBFCF746FD0448D0E90010024AC2E9001005
:2039800010BD0000B81300207013002010B56FF00400FDF7B1FD0A4800680A49B0FBF1F069
:2039A000094908700846007800EB4001C1EBC0104FF6FF7101EAC0000449088010BD0000CD
:2039C0000400002000127A00180000201A0000200146114A12884A434FF0E0235A610022DD
:2039E0009A611A46126942F001021A6100BF4FF0E022106900F001021AB100F48032002A3A
:203A0000F5D04FF0E022126922F001024FF0E0231A6100229A6170471A0000200146114AA3
:203A200012784A434FF0E0235A6100229A611A46126942F001021A6100BF4FF0E022106951
:203A400000F001021AB100F48032002AF5D04FF0E022126922F001024FF0E0231A61002263
:203A60009A6170471800002008B51248006800BB00211148FEF747F9A020ADF800001020DE
:203A80008DF8030003208DF8020069460B48FDF750F800200A4908600A49C1F89C010849E1
:203AA000091F086001200849C1F8A001002006F03BF808BD20812142002C014000080140E2
:203AC00094012142000021420080214270B50446FF2541E0A00200EB85004688A00230F84A
:203AE000250000EB0646701CA0B3681C1E4921F81400084630F81400FF2829DDFCF7FAFFD0
:203B0000A002FCF75DFF042802D0A002FCF758FF0020154921F81400A20231F8141002EB41
:203B200081003146FCF7A4FF042808D0A2020E4931F8141002EB81003146FCF799FF0A48E9
:203B400030F81400401C084921F81400FCF778FF304670BDFFE76D1E002DBBDA00200249A4
:203B600021F8140000BFF4E7CC3B002070B504460D46FCF7BFFF254830F81400FF281BDA1F
:203B8000A202224931F8141002EB81002946FCF76FFF042808D0A2021C4931F8141002EB44
:203BA00081002946FCF764FF184830F81400401C164921F8140025E0A002FCF701FF042875
:203BC00002D0A002FCF7FCFE0020104921F81400A20231F8141002EB81002946FCF748FFD6
:203BE000042808D0A202094931F8141002EB81002946FCF73DFF054830F81400401C034941
:203C000021F81400FCF71CFF70BD0000CC3B002010B500F01BF800F08DF8FFF749FE10BDCE
:203C200008B501210820FDF7D1F90120ADF8000003208DF8020048208DF803006946024866
:203C4000FCF777FF08BD0000000C014010B53548006858B93448007840B93448D0E90010FC
:203C6000334AC2E9001001202F4908702E480078012814D12E48D0E90010143140F100004A
:203C80002A4B0CCB891A984109D22648006818B902202549087002E0002023490870224882
:203CA0000078022836D11F480068012818D12048D0E900104FF47A728A1840F100001B49E3
:203CC000D1E900319A1A81410AD2164820300068012802D105F0D0FE1CE005F0F9FE19E0F1
:203CE00010480068B0B91248D0E900104FF47A73CB1840F100000D49D1E900219A1A884186
:203D000008D208482030006808B9FFF7ADFE03200549087003480068012802D1002002495C
:203D2000087010BD0081214298130020701300209013002010B53448006848B9334800788C
:203D400030B9334903C9334A03C201202F4908702E480078012815D12E48D0E9002014235C
:203D6000D11840F100002A4B0CCB891A984109D22548006818B902202449087002E00020D7
:203D80002249087021480078022835D11E480068012819D11F48D0E900204FF47A73D218F4
:203DA00040F100001A49D1E900319A1A81410BD217484FF4FA61D0E900320020C91A904175
:203DC0001AD205F093FE17E00F480068A0B91148D0E900104FF4FA628A1840F100000C4979
:203DE000D1E90031D21A884106D2012006497C31086003200549087003480068012802D12E
:203E000000200249087010BD3C812142A813002070130020A013002018B5DE480C231A46FF
:203E200001210090084603F04BFEDA4818300C231A46012100900E2003F042FED5483030BD
:203E40000C231A46012100901B2003F039FED14818380C231A4601210090282003F030FEA9
:203E6000CD480478E01704EB10700011CB4901EBC000082305220E210090012003F020FE37
:203E8000C5480478E01704EB10700011A4EB0010C24901EBC000082305220E210090062095
:203EA00003F00EFEBC484478E01704EB10700011BA4901EBC000082305220E2100900B20E1
:203EC00003F0FEFDB4484478E01704EB10700011A4EB0010B14901EBC000082305220E21FF
:203EE0000090102003F0ECFDAB488478E01704EB10700011A94901EBC000082305220E21A1
:203F00000090152003F0DCFDA3488478E01704EB10700011A4EB0010A04901EBC000082353
:203F200005220E2100901A2003F0CAFD9A48C478E01704EB10700011984901EBC00008235A
:203F400005220E2100901F2003F0BAFD9248C478E01704EB10700011A4EB00108F4901EBA2
:203F6000C000082305220E210090242003F0A8FD89480479E01704EB10700011874901EB13
:203F8000C000082305220E2100902C2003F098FD81480479E01704EB10700011A4EB001020
:203FA0007E4901EBC000082305220E210090312003F086FD78484479E01704EB10700011C2
:203FC000764901EBC000082305220E210090362003F076FD70484479E01704EB10700011BD
:203FE000A4EB00106D4901EBC000082305220E2100903B2003F064FD67488479E01704EB6E
:020000040800F2
:2040000010700011654901EBC000082305220E210090402003F054FD5F488479E01704EB76
:2040200010700011A4EB00105C4901EBC000082305220E210090452003F042FD5648C4797C
:20404000E01704EB10700011544901EBC000082305220E2100904A2003F032FD4E48C47930
:20406000E01704EB10700011A4EB00104B4901EBC000082305220E2100904F2003F020FD5A
:204080004548047AE01704EB10700011434901EBC000082305220E210090572003F010FDDE
:2040A0003D48047AE01704EB10700011A4EB00103A4901EBC000082305220E2100905C202B
:2040C00003F0FEFC3448447AE01704EB10700011324901EBC000082305220E210090612089
:2040E00003F0EEFC2C48447AE01704EB10700011A4EB0010294901EBC000082305220E21FC
:204100000090662003F0DCFC2348847AE01704EB10700011214901EBC000082305220E2147
:2041200000906B2003F0CCFC1B48847AE01704EB10700011A4EB0010184901EBC0000823FA
:2041400005220E210090702003F0BAFC1248C47AE01704EB10700011104901EBC000082301
:2041600005220E210090752003F0AAFC0A48C47AE01704EB10700011A4EB0010074901EB49
:20418000C000082305220E2100907A2003F098FC18BD0000890600201A170020AB1200207B
:2041A0000EB5002002904023012211462B2005F0C3FB402301221146562005F0BDFB01238B
:2041C00080220A21184605F0B7FB012380221521184605F0B1FB012380222021184605F0B8
:2041E000ABFB012380222B21184605F0A5FB012380223621184605F09FFB01200290FE4811
:204200000823052200900420029903F059FCFA4808300823052200900920029903F050FC56
:20422000F648007800F0010040B1F348B0300823052200900E20029903F042FCF0484088EF
:204240004FF47A7190FBF1F0EB4901EBC00001900823052200901220029903F031FCE64856
:2042600050300823052200901620029903F028FCE34840884FF47A7190FBF1F201FB120057
:20428000642190FBF1F0DC4901EBC00001900823052200901A20029903F012FCD84840882B
:2042A000642190FBF1F201FB12000A2190FBF1F0D14901EBC00001900823052200901F20EE
:2042C000029903F0FDFBCE4840880A2190FBF1F201FB1200C84901EBC00001900823052233
:2042E00000902420029903F0EBFBC3480823052200902F20029903F0E3FBBF48103008235C
:20430000052200903420029903F0DAFBBB48007800F0020040B1B848B0300823052200900F
:204320003920029903F0CCFBB54880884FF47A7190FBF1F0B04901EBC000019008230522A8
:2043400000903D20029903F0BBFBAB4850300823052200904120029903F0B2FBA848808843
:204360004FF47A7190FBF1F201FB1200642190FBF1F0A14901EBC000019008230522009099
:204380004520029903F09CFB9D488088642190FBF1F201FB12000A2190FBF1F0964901EB43
:2043A000C00001900823052200904A20029903F087FB934880880A2190FBF1F201FB1200C6
:2043C0008D4901EBC00001900823052200904F20029903F075FB88480823052200905A204F
:2043E000029903F06DFB844818300823052200905F20029903F064FB8048007800F0040031
:2044000040B17D48B0300823052200906420029903F056FB7A48C0884FF47A7190FBF1F01D
:20442000754901EBC00001900823052200906820029903F045FB704850300823052200902F
:204440006C20029903F03CFB6D48C0884FF47A7190FBF1F201FB1200642190FBF1F06649C4
:2044600001EBC00001900823052200907020029903F026FB6248C088642190FBF1F201FBFD
:2044800012000A2190FBF1F05B4901EBC00001900823052200907520029903F011FB5848E1
:2044A000C0880A2190FBF1F201FB1200524901EBC00001900823052200907A20029903F02B
:2044C000FFFA0C2002904C480823052200900420029903F0F5FA484820300823052200904C
:2044E0000920029903F0ECFA4448007800F0080040B14148B0300823052200900E2002991E
:2045000003F0DEFA3E4800894FF47A7190FBF1F0394901EBC0000190082305220090122054
:20452000029903F0CDFA344850300823052200901620029903F0C4FA314800894FF47A7196
:2045400090FBF1F201FB1200642190FBF1F02A4901EBC00001900823052200901A20029987
:2045600003F0AEFA26480089642190FBF1F201FB12000A2190FBF1F01F4901EBC00001906C
:204580000823052200901F20029903F099FA1C4800890A2190FBF1F201FB1200164901EBFA
:2045A000C00001900823052200902420029903F087FA11480823052200902F20029903F05D
:2045C0007FFA0D4828300823052200903420029903F076FA0948007800F0100040B1064879
:2045E000B0300823052200903920029903F068FA0348408906E00000E31100206000002022
:20460000B81600204FF47A7190FBF1F0FE4901EBC00001900823052200903D20029903F0C1
:204620004FFAF94850300823052200904120029903F046FAF54840894FF47A7190FBF1F2BD
:2046400001FB1200642190FBF1F0EF4901EBC00001900823052200904520029903F030FAE7
:20466000EA484089642190FBF1F201FB12000A2190FBF1F0E44901EBC000019008230522EB
:2046800000904A20029903F01BFAE04840890A2190FBF1F201FB1200DB4901EBC000019084
:2046A0000823052200904F20029903F009FAD6480823052200905A20029903F001FAD248FB
:2046C00030300823052200905F20029903F0F8F9CF48007800F0200040B1CB48B0300823EC
:2046E000052200906420029903F0EAF9C74880894FF47A7190FBF1F0C34901EBC000019013
:204700000823052200906820029903F0D9F9BE4850300823052200906C20029903F0D0F984
:20472000BA4880894FF47A7190FBF1F201FB1200642190FBF1F0B44901EBC000019008236E
:20474000052200907020029903F0BAF9AF488089642190FBF1F201FB12000A2190FBF1F039
:20476000A94901EBC00001900823052200907520029903F0A5F9A54880890A2190FBF1F2D8
:2047800001FB1200A04901EBC00001900823052200907A20029903F093F9172002909A48A4
:2047A0000823052200900420029903F089F9964838300823052200900920029903F080F98B
:2047C0009348007800F0400040B18F48B0300823052200900E20029903F072F98B48C08989
:2047E0004FF47A7190FBF1F0874901EBC00001900823052200901220029903F061F982484C
:2048000050300823052200901620029903F058F97E48C0894FF47A7190FBF1F201FB120068
:20482000642190FBF1F0784901EBC00001900823052200901A20029903F042F97348C089A0
:20484000642190FBF1F201FB12000A2190FBF1F06D4901EBC00001900823052200901F20AC
:20486000029903F02DF96948C0890A2190FBF1F201FB1200644901EBC000019008230522A7
:2048800000902420029903F01BF95F480823052200902F20029903F013F95B4840300823F2
:2048A000052200903420029903F00AF95848007800F0800040B15448B03008230522009085
:2048C0003920029903F0FCF85048008A4FF47A7190FBF1F04C4901EBC0000190082305221D
:2048E00000903D20029903F0EBF8474850300823052200904120029903F0E2F84348008A8B
:204900004FF47A7190FBF1F201FB1200642190FBF1F03D4901EBC000019008230522009057
:204920004520029903F0CCF83848008A642190FBF1F201FB12000A2190FBF1F0324901EBB7
:20494000C00001900823052200904A20029903F0B7F82E48008A0A2190FBF1F201FB1200D6
:20496000294901EBC00001900823052200904F20029903F0A5F824480823052200905A2044
:20498000029903F09DF8204848300823052200905F20029903F094F81D48008800F48070C8
:2049A00040B11948B0300823052200906420029903F086F81548408A4FF47A7190FBF1F092
:2049C000114901EBC00001900823052200906820029903F075F80C48503008230522009025
:2049E0006C20029903F06CF80848408A4FF47A7190FBF1F201FB1200642190FBF1F0024939
:204A000001EBC000019005E0E3110020B8160020600000200823052200907020029903F0F2
:204A20004FF8FE48408A642190FBF1F201FB12000A2190FBF1F0FA4901EBC00001900823DC
:204A4000052200907520029903F03AF8F348408A0A2190FBF1F201FB1200F14901EBC000B8
:204A600001900823052200907A20029903F028F822200290EA480830082305220090042037
:204A8000029903F01DF8E6480823052200900920029903F015F8E348008800F4007040B197
:204AA000DF48B0300823052200900E20029903F007F8DA48808A4FF47A7190FBF1F0D8496B
:204AC00001EBC00001900823052200901220029902F0F6FFD2485030082305220090162051
:204AE000029902F0EDFFCD48808A4FF47A7190FBF1F201FB1200642190FBF1F0C84901EB86
:204B0000C00001900823052200901A20029902F0D7FFC248808A642190FBF1F201FB1200B0
:204B20000A2190FBF1F0BE4901EBC00001900823052200901F20029902F0C2FFB748808A22
:204B40000A2190FBF1F201FB1200B54901EBC00001900823052200902420029902F0B0FF11
:204B6000AF4808300823052200902F20029902F0A7FFAB48083008230522009034200299A6
:204B800002F09EFFA748008800F4806040B1A448B0300823052200903920029902F090FF27
:204BA0009E48C08A4FF47A7190FBF1F09C4901EBC00001900823052200903D20029902F03D
:204BC0007FFF974850300823052200904120029902F076FF9148C08A4FF47A7190FBF1F2F4
:204BE00001FB1200642190FBF1F08D4901EBC00001900823052200904520029902F060FF70
:204C00008648C08A642190FBF1F201FB12000A2190FBF1F0824901EBC0000190082305228A
:204C200000904A20029902F04BFF7C48C08A0A2190FBF1F201FB1200794901EBC0000190EF
:204C40000823052200904F20029902F039FF744808300823052200905A20029902F030FF32
:204C60006F4810300823052200905F20029902F027FF6C48008800F4006040B16848B03018
:204C80000823052200906420029902F019FF6348008B4FF47A7190FBF1F0614901EBC000E3
:204CA00001900823052200906820029902F008FF5B4850300823052200906C20029902F047
:204CC000FFFE5648008B4FF47A7190FBF1F201FB1200642190FBF1F0514901EBC00001903C
:204CE0000823052200907020029902F0E9FE4B48008B642190FBF1F201FB12000A2190FBF9
:204D0000F1F0474901EBC00001900823052200907520029902F0D4FE4048008B0A2190FB46
:204D2000F1F201FB12003E4901EBC00001900823052200907A20029902F0C2FE2D20029016
:204D4000374808300823052200900420029902F0B7FE3348183008230522009009200299EB
:204D600002F0AEFE2F48008800F4805040B12C48B0300823052200900E20029902F0A0FE52
:204D80002648408B4FF47A7190FBF1F0244901EBC00001900823052200901220029902F0F5
:204DA0008FFE1F4850300823052200901620029902F086FE1948408B4FF47A7190FBF1F28E
:204DC00001FB1200642190FBF1F0154901EBC00001900823052200901A20029902F070FE22
:204DE0000E48408B642190FBF1F201FB12000A2190FBF1F00A4901EBC00001900823052218
:204E000000901F20029902F05BFE0448408B0A2190FBF1F201FB1200014905E0B816002002
:204E2000E31100206000002001EBC00001900823052200902420029902F042FEFE4808233D
:204E4000052200902F20029902F03AFEFA4818300823052200903420029902F031FEF748CC
:204E6000008800F4005040B1F348A8300823052200903920029902F023FEF148808B4FF4F2
:204E80007A7190FBF1F0EC49083901EBC00001900823052200903D20029902F011FEE648FF
:204EA00048300823052200904120029902F008FEE348808B4FF47A7190FBF1F201FB1200C4
:204EC000642190FBF1F0DC49083901EBC00001900823052200904520029902F0F1FDD8485C
:204EE000808B642190FBF1F201FB12000A2190FBF1F0D149083901EBC00001900823052225
:204F000000904A20029902F0DBFDCD48808B0A2190FBF1F201FB1200C749083901EBC0006E
:204F200001900823052200904F20029902F0C8FDC1480823052200905A20029902F0C0FD8E
:204F4000BD4820300823052200905F20029902F0B7FDBA48008800F4804040B1B648A83055
:204F60000823052200906420029902F0A9FDB448C08B4FF47A7190FBF1F0AF49083901EB92
:204F8000C00001900823052200906820029902F097FDA94848300823052200906C200299C3
:204FA00002F08EFDA648C08B4FF47A7190FBF1F201FB1200642190FBF1F09F49083901EB8B
:204FC000C00001900823052200907020029902F077FD9B48C08B642190FBF1F201FB1200DE
:204FE0000A2190FBF1F09449083901EBC00001900823052200907520029902F061FD904885
:20500000C08B0A2190FBF1F201FB12008A49083901EBC00001900823052200907A20029936
:2050200002F04EFD3820029083480823052200900420029902F044FD7F4828300823052239
:2050400000900920029902F03BFD7C48008800F4004040B17848A8300823052200900E20B9
:20506000029902F02DFD7648008C4FF47A7190FBF1F07149083901EBC0000190082305220B
:2050800000901220029902F01BFD6B4848300823052200901620029902F012FD6848008C8E
:2050A0004FF47A7190FBF1F201FB1200642190FBF1F06149083901EBC000019008230522DB
:2050C00000901A20029902F0FBFC5D48008C642190FBF1F201FB12000A2190FBF1F056491A
:2050E000083901EBC00001900823052200901F20029902F0E5FC5248008C0A2190FBF1F2E4
:2051000001FB12004C49083901EBC00001900823052200902420029902F0D2FC4648082334
:20512000052200902F20029902F0CAFC424830300823052200903420029902F0C1FC3F4825
:20514000006800F4803040B13B48A8300823052200903920029902F0B3FC3948408C4FF4F0
:205160007A7190FBF1F03449083901EBC00001900823052200903D20029902F0A1FC2E48FE
:2051800048300823052200904120029902F098FC2B48408C4FF47A7190FBF1F201FB12004A
:2051A000642190FBF1F02449083901EBC00001900823052200904520029902F081FC20485A
:2051C000408C642190FBF1F201FB12000A2190FBF1F01949083901EBC00001900823052239
:2051E00000904A20029902F06BFC1548408C0A2190FBF1F201FB12000F49083901EBC000AC
:2052000001900823052200904F20029902F058FC09480823052200905A20029902F050FC45
:20522000054838300823052200905F20029902F047FC0248006805E0EB1100206000002055
:20524000B816002000F4003038B132480823052200906420029902F033FC2F48808C4FF4F1
:205260007A7190FBF1F02B49B03901EBC00001900823052200906820029902F021FC2548BC
:2052800060380823052200906C20029902F018FC2148808C4FF47A7190FBF1F201FB120048
:2052A000642190FBF1F01B49B03901EBC00001900823052200907020029902F001FC164819
:2052C000808C642190FBF1F201FB12000A2190FBF1F01049B03901EBC00001900823052259
:2052E00000907520029902F0EBFB0B48808C0A2190FBF1F201FB12000649B03901EBC0002C
:2053000001900823052200907A20029902F0D8FB0EBD000093120020B81600200EB50020BF
:2053200002903623012211462B2004F005FB362301221146562004F0FFFA012380220A21A2
:20534000184604F0F9FA012380221521184604F0F3FA012380222021184604F0EDFA012369
:2053600080222B21184604F0E7FA012355223621184604F0E1FA01200290FE4808230522A2
:2053800000900420029902F09BFBFA4840300823052200900920029902F092FBF6480068B9
:2053A00000F4802040B1F348A8300823052200900E20029902F084FBF048C08C4FF47A7187
:2053C00090FBF1F0EB49083901EBC00001900823052200901220029902F072FBE5484830FC
:2053E0000823052200901620029902F069FBE348C08C4FF47A7190FBF1F201FB12006421FE
:2054000090FBF1F0DB49083901EBC00001900823052200901A20029902F052FBD748C08C1D
:20542000642190FBF1F201FB12000A2190FBF1F0D049083901EBC00001900823052200905B
:205440001F20029902F03CFBCC48C08C0A2190FBF1F201FB1200C749083901EBC0000190B4
:205460000823052200902420029902F029FBC14808300823052200902F20029902F020FB3B
:20548000BC4808380823052200903420029902F017FBB948006800F4002040B1B548A830B0
:2054A0000823052200903920029902F009FBB348008D4FF47A7190FBF1F0AE49083901EBDA
:2054C000C00001900823052200903D20029902F0F7FAA84848300823052200904120029978
:2054E00002F0EEFAA548008D4FF47A7190FBF1F201FB1200642190FBF1F09E49083901EBA9
:20550000C00001900823052200904520029902F0D7FA9A48008D642190FBF1F201FB120025
:205520000A2190FBF1F09349083901EBC00001900823052200904A20029902F0C1FA8F480F
:20554000008D0A2190FBF1F201FB12008949083901EBC00001900823052200904F200299DB
:2055600002F0AEFA834808300823052200905A20029902F0A5FA7F480823052200905F20DE
:20558000029902F09DFA7C48006800F4801040B17848A8300823052200906420029902F0BB
:2055A0008FFA7648408D4FF47A7190FBF1F07149083901EBC000019008230522009068209B
:2055C000029902F07DFA6B4848300823052200906C20029902F074FA6848408D4FF47A7188
:2055E00090FBF1F201FB1200642190FBF1F06149083901EBC00001900823052200907020A4
:20560000029902F05DFA5D48408D642190FBF1F201FB12000A2190FBF1F05649083901EBD0
:20562000C00001900823052200907520029902F047FA5248408D0A2190FBF1F201FB1200C6
:205640004C49083901EBC00001900823052200907A20029902F034FA0C200290454808307D
:205660000823052200900420029902F029FA414808300823052200900920029902F020FA01
:205680003D48006800F4001040B13A48A8300823052200900E20029902F012FA3748808D99
:2056A0004FF47A7190FBF1F03249083901EBC00001900823052200901220029902F000FABC
:2056C0002C4848300823052200901620029902F0F7F92A48808D4FF47A7190FBF1F201FB32
:2056E0001200642190FBF1F02249083901EBC00001900823052200901A20029902F0E0F93C
:205700001E48808D642190FBF1F201FB12000A2190FBF1F01749083901EBC0000190082375
:20572000052200901F20029902F0CAF91348808D0A2190FBF1F201FB12000E49083901EB90
:20574000C00001900823052200902420029902F0B7F9084808300823052200902F20029941
:2057600002F0AEF9034810300823052200903420029905E0EB11002060000020B8160020C5
:2057800002F09EF9FE48006800F4800038B1FD480823052200903920029902F091F9FA489C
:2057A000C08D4FF47A7190FBF1F0F649B03901EBC00001900823052200903D20029902F0D1
:2057C0007FF9F04860380823052200904120029902F076F9EC48C08D4FF47A7190FBF1F225
:2057E00001FB1200642190FBF1F0E649B03901EBC00001900823052200904520029902F081
:205800005FF9E148C08D642190FBF1F201FB12000A2190FBF1F0DB49B03901EBC0000190D8
:205820000823052200904A20029902F049F9D648C08D0A2190FBF1F201FB1200D149B03938
:2058400001EBC00001900823052200904F20029902F036F9CB48A0380823052200905A20B7
:20586000029902F02DF9C74890380823052200905F20029902F024F9C148006800F400002E
:2058800038B1C0480823052200906420029902F017F9BD48008E4FF47A7190FBF1F0B949E5
:2058A000B03901EBC00001900823052200906820029902F005F9B348603808230522009058
:2058C0006C20029902F0FCF8AF48008E4FF47A7190FBF1F201FB1200642190FBF1F0A949A9
:2058E000B03901EBC00001900823052200907020029902F0E5F8A448008E642190FBF1F239
:2059000001FB12000A2190FBF1F09E49B03901EBC00001900823052200907520029902F0D1
:20592000CFF89948008E0A2190FBF1F201FB12009449B03901EBC0000190082305220090A5
:205940007A20029902F0BCF8172002908D48A0380823052200900420029902F0B1F88948E9
:2059600088380823052200900920029902F0A8F88348006800F0807038B182480823052217
:2059800000900E20029902F09BF87F48408E4FF47A7190FBF1F07B49B03901EBC000019010
:2059A0000823052200901220029902F089F8754860380823052200901620029902F080F853
:2059C0007148408E4FF47A7190FBF1F201FB1200642190FBF1F06B49B03901EBC0000190CB
:2059E0000823052200901A20029902F069F86648408E642190FBF1F201FB12000A2190FB6A
:205A0000F1F06049B03901EBC00001900823052200901F20029902F053F85B48408E0A2141
:205A200090FBF1F201FB12005649B03901EBC00001900823052200902420029902F040F83A
:205A40005048A0380823052200902F20029902F037F84C48803808230522009034200299CC
:205A600002F02EF84648006800F0007038B145480823052200903920029902F021F84248D7
:205A8000808E4FF47A7190FBF1F03E49B03901EBC00001900823052200903D20029902F0E5
:205AA0000FF8384860380823052200904120029902F006F83448808E4FF47A7190FBF1F2D3
:205AC00001FB1200642190FBF1F02E49B03901EBC00001900823052200904520029901F057
:205AE000EFFF2948808E642190FBF1F201FB12000A2190FBF1F02349B03901EBC00001900F
:205B00000823052200904A20029901F0D9FF1E48808E0A2190FBF1F201FB12001949B0396F
:205B200001EBC00001900823052200904F20029901F0C6FF1348A0380823052200905A20F7
:205B4000029901F0BDFF0F4878380823052200905F20029901F0B4FF0948006800F08060CD
:205B600038B108480823052200906420029901F0A7FF0548C08E4FF47A7190FBF1F005E03A
:205B80006000002093120020B8160020FE4901EBC00001900823052200906820029901F058
:205BA0008FFFF94850300823052200906C20029901F086FFF548C08E4FF47A7190FBF1F2F0
:205BC00001FB1200642190FBF1F0EF4901EBC00001900823052200907020029901F070FFE4
:205BE000EA48C08E642190FBF1F201FB12000A2190FBF1F0E44901EBC000019008230522D1
:205C000000907520029901F05BFFE048C08E0A2190FBF1F201FB1200DB4901EBC0000190FB
:205C20000823052200907A20029901F049FF22200290D54810300823052200900420029942
:205C400001F03EFFD04840300823052200900920029901F035FFCE48006800F0006040B104
:205C6000C948B0300823052200900E20029901F027FFC648008F4FF47A7190FBF1F0C2492F
:205C800001EBC00001900823052200901220029901F016FFBC485030082305220090162076
:205CA000029901F00DFFB948008F4FF47A7190FBF1F201FB1200642190FBF1F0B24901EB3A
:205CC000C00001900823052200901A20029901F0F7FEAE48008F642190FBF1F201FB120050
:205CE0000A2190FBF1F0A84901EBC00001900823052200901F20029901F0E2FEA348008FD8
:205D00000A2190FBF1F201FB12009F4901EBC00001900823052200902420029901F0D0FE37
:205D2000994810300823052200902F20029901F0C7FE95484830082305220090342002999A
:205D400001F0BEFE9248006800F0805040B18E48B0300823052200903920029901F0B0FE78
:205D60008A48408F4FF47A7190FBF1F0864901EBC00001900823052200903D20029901F011
:205D80009FFE814850300823052200904120029901F096FE7D48408F4FF47A7190FBF1F28A
:205DA00001FB1200642190FBF1F0774901EBC00001900823052200904520029901F080FE96
:205DC0007248408F642190FBF1F201FB12000A2190FBF1F06C4901EBC0000190082305225E
:205DE00000904A20029901F06BFE6848408F0A2190FBF1F201FB1200634901EBC0000190A5
:205E00000823052200904F20029901F059FE5E4818300823052200905A20029901F050FE2A
:205E200059480823052200905F20029901F048FE5748006800F0005040B15348B0300823B0
:205E4000052200906420029901F03AFE4F48808F4FF47A7190FBF1F04B4901EBC000019032
:205E60000823052200906820029901F029FE464850300823052200906C20029901F020FEDF
:205E80004248808F4FF47A7190FBF1F201FB1200642190FBF1F03C4901EBC00001900823E1
:205EA000052200907020029901F00AFE3748808F642190FBF1F201FB12000A2190FBF1F0E1
:205EC000314901EBC00001900823052200907520029901F0F5FD2D48808F0A2190FBF1F2F9
:205EE00001FB1200284901EBC00001900823052200907A20029901F0E3FD2D2002902248B5
:205F000018300823052200900420029901F0D8FD1D4808300823052200900920029901F09E
:205F2000CFFD1B48006800F0804040B11648B0300823052200900E20029901F0C1FD134836
:205F4000C08F4FF47A7190FBF1F00F4901EBC00001900823052200901220029901F0B0FD76
:205F6000094850300823052200901620029901F0A7FD0648C08F4FF47A7190FBF1F201FBD3
:205F80001200642106E00000E3110020B81600206000002090FBF1F0564901EBC0000190BA
:205FA0000823052200901A20029901F089FD5248C08F642190FBF1F201FB12000A2190FB13
:205FC000F1F04C4901EBC00001900823052200901F20029901F074FD4748C08F0A2190FB5C
:205FE000F1F201FB1200434901EBC00001900823052200902420029901F062FD3D48183009
:020000040800F2
:206000000823052200902F20029901F059FD394810300823052200903420029901F050FD9D
:206020003648006800F0004040B13248B0300823052200903920029901F042FD2E48B0F8DB
:2060400040004FF47A7190FBF1F02A4901EBC00001900823052200903D20029901F030FDBE
:20606000244850300823052200904120029901F027FD2148B0F840004FF47A7190FBF1F254
:2060800001FB1200642190FBF1F01A4901EBC00001900823052200904520029901F010FD81
:2060A0001548B0F84000642190FBF1F201FB12000A2190FBF1F00F4901EBC0000190082343
:2060C000052200904A20029901F0FAFC0A48B0F840000A2190FBF1F201FB1200054901EB02
:2060E000C00001900823052200904F20029901F0E7FC0EBDE3110020B81600206000002042
:2061000038B5FE4800884FF47A7190FBF1F000EBC00101EB0010FA4901EB400519230F22A1
:2061200001210846009501F0CBFCF44800884FF47A7190FBF1F201FB1200642190FBF1F043
:2061400000EBC00101EB0010ED4901EB400519230F2201211020009501F0B2FCE748008886
:20616000642190FBF1F201FB12000A2190FBF1F000EBC00101EB0010E14901EB4005192348
:206180000F2201211F20009501F09AFCDD4819230F22012100902E2001F092FCD748008899
:2061A0000A2190FBF1F201FB120000EBC00101EB0010D34901EB400519230F22012137205D
:2061C000009501F07DFCCF48643019230F2201210090462001F074FCCB480068002802DBAF
:2061E000C948046802E0C848006844424FF47A7094FBF0F000EBC00101EB0010C04901EB09
:20620000400519230F2219460120009501F058FC4FF47A7094FBF0F100FB1140642190FB79
:20622000F1F000EBC00101EB0010B54901EB400519230F2219461020009501F041FC642063
:2062400094FBF0F100FB11400A2190FBF1F000EBC00101EB0010AA4901EB400519230F22B2
:2062600019461F20009501F02BFCA64819230F22194600902E2001F023FC0A2094FBF0F191
:2062800000FB114000EBC00101EB00109C4901EB400519230F2219463720009501F010FC3F
:2062A0009848323019230F2219460090462001F007FC964808230522012100905D2001F096
:2062C000FFFB934800884FF47A7190FBF1F08F49783901EBC0050823052201216220009502
:2062E00001F0EEFB894828380823052201210090672001F0E5FB864800884FF47A7190FB28
:20630000F1F201FB1200642190FBF1F07F49783901EBC0050823052201216C20009501F0EB
:20632000CFFB7B480088642190FBF1F201FB12000A2190FBF1F07549783901EBC005082365
:20634000052201217120009501F0BAFB704800880A2190FBF1F201FB12006C49783901EBEF
:20636000C0050823052201217620009501F0A8FB6648183808230522012100907B2001F097
:206380009FFB62480830082305220A2100905D2001F096FB5F4800884FF47A7190FBF1F0AC
:2063A0005A49783901EBC005082305220A216220009501F085FB55482838082305220A2159
:2063C0000090672001F07CFB524800884FF47A7190FBF1F201FB1200642190FBF1F04B49ED
:2063E000783901EBC005082305220A216C20009501F066FB47480088642190FBF1F201FB45
:2064000012000A2190FBF1F04049783901EBC005082305220A217120009501F051FB3D4883
:2064200000880A2190FBF1F201FB12003749783901EBC005082305220A217620009501F0B2
:206440003FFB32481838082305220A2100907B2001F036FB2D48203808230522132100908B
:206460005D2001F02DFB2C4800884FF47A7190FBF1F02649783901EBC00508230522132199
:206480006220009501F01CFB204828380823052213210090672001F013FB1F4800884FF447
:2064A0007A7190FBF1F201FB1200642190FBF1F01649783901EBC0050823052213216C20B1
:2064C000009501F0FDFA14480088642190FBF1F201FB12000A2190FBF1F00C49783901EBD1
:2064E000C0050823052213217120009501F0E8FA094800880A2190FBF1F20FE0B816002009
:20650000590F00204D1100202C0000205B1200204E000020500000205200002001FB12003E
:20652000F34901EBC0050823052213217620009501F0C6FAEE486030082305221321009030
:206540007B2001F0BDFAEB480068EB49B0FBF1F04FF47A71B0FBF1F0E54901EBC0050823D9
:2065600005221C215D20009501F0AAFAE1480068E149B0FBF1F04FF47A71B0FBF1F201FB11
:2065800012006421B0FBF1F0D94901EBC005082305221C216220009501F092FAD54800685D
:2065A000D549B0FBF1F06421B0FBF1F201FB12000A21B0FBF1F0CE4901EBC005082305223F
:2065C0001C216720009501F07BFAC9485030082305221C2100906C2001F072FAC5480068EE
:2065E000C549B0FBF1F00A21B0FBF1F201FB1200BF4901EBC005082305221C2171200095CC
:2066000001F05EFABA485830082305221C210090762001F055FAB6487830082305221C217D
:2066200000907B2001F04CFAB4480068002869DBB248006842F2107190FBF1F0AC4901EBC4
:20664000C0050823052225216220009501F038FAAA48006842F2107190FBF1F201FB120018
:206660004FF47A7190FBF1F0A14901EBC0050823052225216720009501F022FA9F480068D5
:206680004FF47A7190FBF1F201FB1200642190FBF1F0974901EBC0050823052225216C20AA
:2066A000009501F00DFA95480068642190FBF1F201FB12000A2190FBF1F08D4901EBC005E9
:2066C0000823052225217120009501F0F9F98B4800680A2190FBF1F201FB1200844901EB7E
:2066E000C0050823052225217620009501F0E8F97F48983008230522252100907B2001F0FD
:20670000DFF976E07A48B83008230522252100905D2001F0D5F979480068404242F21071DD
:2067200090FBF1F0724901EBC0050823052225216220009501F0C4F970480068404242F24E
:20674000107190FBF1F201FB12004FF47A7190FBF1F0674901EBC005082305222521672022
:20676000009501F0ADF96548006840424FF47A7190FBF1F201FB1200642190FBF1F05C4916
:2067800001EBC0050823052225216C20009501F097F95A4800684042642190FBF1F201FB93
:2067A00012000A2190FBF1F0514901EBC0050823052225217120009501F082F94F480068BC
:2067C00040420A2190FBF1F201FB1200484901EBC0050823052225217620009501F070F931
:2067E0004348983008230522252100907B2001F067F9012366223721184603F09DF80A231B
:2068000001223721104603F097F808233C4802783821022003F090F801236622402118469B
:2068200003F08AF80A2301223721662003F084F8042301223A21672003F07EF80423012267
:206840003A21682003F078F82D480078642190FBF1F068B12A48007890FBF1F0244901EB4C
:20686000C0050823052237216B20009501F028F923480078642190FBF1F048B920480078C2
:2068800090FBF1F201FB12000A2190FBF1F098B11B480078642190FBF1F201FB12000A2195
:2068A00090FBF1F0124901EBC0050823052237217020009501F004F9114800780A2190FB1C
:2068C000F1F201FB12000A4901EBC0050823052237217520009501F0F3F8054890300823DB
:2068E0000522372100907A2001F0EAF838BD0000E311002038000020A0860100480000202C
:206900003000002018B5FE480C23062201210090042001F0D5F8FA4848300C2306220121F6
